{
  "_format": "hh-sol-artifact-1",
  "contractName": "PriorityFeeManager",
  "sourceName": "contracts/eth_max_priogas.sol",
  "abi": [
    {
      "inputs": [
        {
          "internalType": "uint256",
          "name": "_initialMaxPriorityFeePerGas",
          "type": "uint256"
        }
      ],
      "stateMutability": "nonpayable",
      "type": "constructor"
    },
    {
      "inputs": [],
      "name": "maxPriorityFeePerGas",
      "outputs": [
        {
          "internalType": "uint256",
          "name": "",
          "type": "uint256"
        }
      ],
      "stateMutability": "view",
      "type": "function"
    },
    {
      "inputs": [
        {
          "internalType": "uint256",
          "name": "_newMaxPriorityFeePerGas",
          "type": "uint256"
        }
      ],
      "name": "setMaxPriorityFeePerGas",
      "outputs": [],
      "stateMutability": "nonpayable",
      "type": "function"
    }
  ],
  "bytecode": "0x608060405234801561001057600080fd5b506040516101e93803806101e98339818101604052810190610032919061007a565b80600081905550506100a7565b600080fd5b6000819050919050565b61005781610044565b811461006257600080fd5b50565b6000815190506100748161004e565b92915050565b6000602082840312156100905761008f61003f565b5b600061009e84828501610065565b91505092915050565b610133806100b66000396000f3fe6080604052348015600f57600080fd5b506004361060325760003560e01c8063ec3df879146037578063fc5e46e514604f575b600080fd5b604d60048036038101906049919060af565b6069565b005b60556073565b6040516060919060e4565b60405180910390f35b8060008190555050565b60005481565b600080fd5b6000819050919050565b608f81607e565b8114609957600080fd5b50565b60008135905060a9816088565b92915050565b60006020828403121560c25760c16079565b5b600060ce84828501609c565b91505092915050565b60de81607e565b82525050565b600060208201905060f7600083018460d7565b9291505056fea26469706673582212205ad2a9e9c0b52df830f3ba783df8527bbc5c6b6f2f0898e685b555905b12eec464736f6c63430008130033",
  "linkReferences": {},
  "deployedLinkReferences": {}
}